{
  "_format": "hh-sol-artifact-1",
  "contractName": "StartupFunding",
  "sourceName": "contracts/StartupFunding.sol",
  "abi": [
    {
      "inputs": [],
      "stateMutability": "nonpayable",
      "type": "constructor"
    },
    {
      "anonymous": false,
      "inputs": [
        {
          "indexed": true,
          "internalType": "address",
          "name": "funder",
          "type": "address"
        },
        {
          "indexed": false,
          "internalType": "uint256",
          "name": "amount",
          "type": "uint256"
        }
      ],
      "name": "Funded",
      "type": "event"
    },
    {
      "anonymous": false,
      "inputs": [
        {
          "indexed": true,
          "internalType": "address",
          "name": "owner",
          "type": "address"
        },
        {
          "indexed": false,
          "internalType": "uint256",
          "name": "amount",
          "type": "uint256"
        }
      ],
      "name": "Withdrawn",
      "type": "event"
    },
    {
      "inputs": [],
      "name": "fund",
      "outputs": [],
      "stateMutability": "payable",
      "type": "function"
    },
    {
      "inputs": [],
      "name": "owner",
      "outputs": [
        {
          "internalType": "address",
          "name": "",
          "type": "address"
        }
      ],
      "stateMutability": "view",
      "type": "function"
    },
    {
      "inputs": [],
      "name": "totalDonated",
      "outputs": [
        {
          "internalType": "uint256",
          "name": "",
          "type": "uint256"
        }
      ],
      "stateMutability": "view",
      "type": "function"
    },
    {
      "inputs": [],
      "name": "totalFunds",
      "outputs": [
        {
          "internalType": "uint256",
          "name": "",
          "type": "uint256"
        }
      ],
      "stateMutability": "view",
      "type": "function"
    },
    {
      "inputs": [],
      "name": "withdrawFunds",
      "outputs": [],
      "stateMutability": "nonpayable",
      "type": "function"
    }
  ],
  "bytecode": "0x608060405234801561001057600080fd5b50336000806101000a81548173ffffffffffffffffffffffffffffffffffffffff021916908373ffffffffffffffffffffffffffffffffffffffff160217905550600060018190555060006002819055506107a8806100706000396000f3fe6080604052600436106100495760003560e01c8062b370441461004e57806324600fc3146100795780638da5cb5b14610090578063968ed600146100bb578063b60d4288146100e6575b600080fd5b34801561005a57600080fd5b506100636100f0565b604051610070919061041f565b60405180910390f35b34801561008557600080fd5b5061008e6100f6565b005b34801561009c57600080fd5b506100a5610317565b6040516100b2919061047b565b60405180910390f35b3480156100c757600080fd5b506100d061033b565b6040516100dd919061041f565b60405180910390f35b6100ee610341565b005b60025481565b60008054906101000a900473ffffffffffffffffffffffffffffffffffffffff1673ffffffffffffffffffffffffffffffffffffffff163373ffffffffffffffffffffffffffffffffffffffff1614610184576040517f08c379a000000000000000000000000000000000000000000000000000000000815260040161017b90610519565b60405180910390fd5b6000600154116101c9576040517f08c379a00000000000000000000000000000000000000000000000000000000081526004016101c0906105ab565b60405180910390fd5b60006001549050600060018190555060008060009054906101000a900473ffffffffffffffffffffffffffffffffffffffff1673ffffffffffffffffffffffffffffffffffffffff168260405161021f906105fc565b60006040518083038185875af1925050503d806000811461025c576040519150601f19603f3d011682016040523d82523d6000602084013e610261565b606091505b50509050806102a5576040517f08c379a000000000000000000000000000000000000000000000000000000000815260040161029c9061065d565b60405180910390fd5b60008054906101000a900473ffffffffffffffffffffffffffffffffffffffff1673ffffffffffffffffffffffffffffffffffffffff167f7084f5476618d8e60b11ef0d7d3f06914655adb8793e28ff7f018d4c76d505d58360405161030b919061041f565b60405180910390a25050565b60008054906101000a900473ffffffffffffffffffffffffffffffffffffffff1681565b60015481565b60003411610384576040517f08c379a000000000000000000000000000000000000000000000000000000000815260040161037b906106ef565b60405180910390fd5b3460016000828254610396919061073e565b9250508190555034600260008282546103af919061073e565b925050819055503373ffffffffffffffffffffffffffffffffffffffff167f5af8184bef8e4b45eb9f6ed7734d04da38ced226495548f46e0c8ff8d7d9a524346040516103fc919061041f565b60405180910390a2565b6000819050919050565b61041981610406565b82525050565b60006020820190506104346000830184610410565b92915050565b600073ffffffffffffffffffffffffffffffffffffffff82169050919050565b60006104658261043a565b9050919050565b6104758161045a565b82525050565b6000602082019050610490600083018461046c565b92915050565b600082825260208201905092915050565b7f4f6e6c7920746865206f776e65722063616e2063616c6c20746869732066756e60008201527f6374696f6e2e0000000000000000000000000000000000000000000000000000602082015250565b6000610503602683610496565b915061050e826104a7565b604082019050919050565b60006020820190508181036000830152610532816104f6565b9050919050565b7f4e6f2066756e647320617661696c61626c6520666f722077697468647261776160008201527f6c2e000000000000000000000000000000000000000000000000000000000000602082015250565b6000610595602283610496565b91506105a082610539565b604082019050919050565b600060208201905081810360008301526105c481610588565b9050919050565b600081905092915050565b50565b60006105e66000836105cb565b91506105f1826105d6565b600082019050919050565b6000610607826105d9565b9150819050919050565b7f5769746864726177616c206661696c65642e0000000000000000000000000000600082015250565b6000610647601283610496565b915061065282610611565b602082019050919050565b600060208201905081810360008301526106768161063a565b9050919050565b7f4d7573742073656e642045544820746f2066756e642074686520636f6e74726160008201527f63742e0000000000000000000000000000000000000000000000000000000000602082015250565b60006106d9602383610496565b91506106e48261067d565b604082019050919050565b60006020820190508181036000830152610708816106cc565b9050919050565b7f4e487b7100000000000000000000000000000000000000000000000000000000600052601160045260246000fd5b600061074982610406565b915061075483610406565b925082820190508082111561076c5761076b61070f565b5b9291505056fea2646970667358221220d136ea7e21976ec181a51df53d609c1cceedb2d6d2e88744e6fbfc6b9cef64a264736f6c63430008110033",
  "linkReferences": {},
  "deployedLinkReferences": {}
}